{
  "_format": "hh-sol-artifact-1",
  "contractName": "OKBPoolManager",
  "sourceName": "contracts/OKBPoolManager.sol",
  "abi": [
    {
      "inputs": [
        {
          "internalType": "address",
          "name": "_okbToken",
          "type": "address"
        },
        {
          "internalType": "address",
          "name": "initialOwner",
          "type": "address"
        }
      ],
      "stateMutability": "nonpayable",
      "type": "constructor"
    },
    {
      "inputs": [
        {
          "internalType": "address",
          "name": "owner",
          "type": "address"
        }
      ],
      "name": "OwnableInvalidOwner",
      "type": "error"
    },
    {
      "inputs": [
        {
          "internalType": "address",
          "name": "account",
          "type": "address"
        }
      ],
      "name": "OwnableUnauthorizedAccount",
      "type": "error"
    },
    {
      "anonymous": false,
      "inputs": [
        {
          "indexed": true,
          "internalType": "address",
          "name": "token",
          "type": "address"
        }
      ],
      "name": "MigrationTriggered",
      "type": "event"
    },
    {
      "anonymous": false,
      "inputs": [
        {
          "indexed": true,
          "internalType": "address",
          "name": "previousOwner",
          "type": "address"
        },
        {
          "indexed": true,
          "internalType": "address",
          "name": "newOwner",
          "type": "address"
        }
      ],
      "name": "OwnershipTransferred",
      "type": "event"
    },
    {
      "anonymous": false,
      "inputs": [
        {
          "indexed": true,
          "internalType": "address",
          "name": "token",
          "type": "address"
        },
        {
          "indexed": false,
          "internalType": "uint256",
          "name": "amount",
          "type": "uint256"
        }
      ],
      "name": "PoolUpdated",
      "type": "event"
    },
    {
      "inputs": [],
      "name": "DEX_LIQUIDITY",
      "outputs": [
        {
          "internalType": "uint256",
          "name": "",
          "type": "uint256"
        }
      ],
      "stateMutability": "view",
      "type": "function"
    },
    {
      "inputs": [],
      "name": "LOCKED_AMOUNT",
      "outputs": [
        {
          "internalType": "uint256",
          "name": "",
          "type": "uint256"
        }
      ],
      "stateMutability": "view",
      "type": "function"
    },
    {
      "inputs": [],
      "name": "MIGRATION_THRESHOLD",
      "outputs": [
        {
          "internalType": "uint256",
          "name": "",
          "type": "uint256"
        }
      ],
      "stateMutability": "view",
      "type": "function"
    },
    {
      "inputs": [
        {
          "internalType": "address",
          "name": "token",
          "type": "address"
        },
        {
          "internalType": "uint256",
          "name": "amount",
          "type": "uint256"
        }
      ],
      "name": "addToPool",
      "outputs": [],
      "stateMutability": "nonpayable",
      "type": "function"
    },
    {
      "inputs": [
        {
          "internalType": "address",
          "name": "token",
          "type": "address"
        }
      ],
      "name": "canMigrate",
      "outputs": [
        {
          "internalType": "bool",
          "name": "",
          "type": "bool"
        }
      ],
      "stateMutability": "view",
      "type": "function"
    },
    {
      "inputs": [
        {
          "internalType": "address",
          "name": "",
          "type": "address"
        }
      ],
      "name": "migrated",
      "outputs": [
        {
          "internalType": "bool",
          "name": "",
          "type": "bool"
        }
      ],
      "stateMutability": "view",
      "type": "function"
    },
    {
      "inputs": [],
      "name": "okbToken",
      "outputs": [
        {
          "internalType": "contract IERC20",
          "name": "",
          "type": "address"
        }
      ],
      "stateMutability": "view",
      "type": "function"
    },
    {
      "inputs": [],
      "name": "owner",
      "outputs": [
        {
          "internalType": "address",
          "name": "",
          "type": "address"
        }
      ],
      "stateMutability": "view",
      "type": "function"
    },
    {
      "inputs": [],
      "name": "renounceOwnership",
      "outputs": [],
      "stateMutability": "nonpayable",
      "type": "function"
    },
    {
      "inputs": [
        {
          "internalType": "address",
          "name": "",
          "type": "address"
        }
      ],
      "name": "tokenPools",
      "outputs": [
        {
          "internalType": "uint256",
          "name": "",
          "type": "uint256"
        }
      ],
      "stateMutability": "view",
      "type": "function"
    },
    {
      "inputs": [
        {
          "internalType": "address",
          "name": "newOwner",
          "type": "address"
        }
      ],
      "name": "transferOwnership",
      "outputs": [],
      "stateMutability": "nonpayable",
      "type": "function"
    },
    {
      "inputs": [
        {
          "internalType": "address",
          "name": "token",
          "type": "address"
        }
      ],
      "name": "withdrawForLiquidity",
      "outputs": [],
      "stateMutability": "nonpayable",
      "type": "function"
    }
  ],
  "bytecode": "0x608060405234801561001057600080fd5b506040516110c23803806110c283398181016040528101906100329190610224565b80600073ffffffffffffffffffffffffffffffffffffffff168173ffffffffffffffffffffffffffffffffffffffff16036100a55760006040517f1e4fbdf700000000000000000000000000000000000000000000000000000000815260040161009c9190610273565b60405180910390fd5b6100b4816100fd60201b60201c565b5081600160006101000a81548173ffffffffffffffffffffffffffffffffffffffff021916908373ffffffffffffffffffffffffffffffffffffffff160217905550505061028e565b60008060009054906101000a900473ffffffffffffffffffffffffffffffffffffffff169050816000806101000a81548173ffffffffffffffffffffffffffffffffffffffff021916908373ffffffffffffffffffffffffffffffffffffffff1602179055508173ffffffffffffffffffffffffffffffffffffffff168173ffffffffffffffffffffffffffffffffffffffff167f8be0079c531659141344cd1fd0a4f28419497f9722a3daafe3b4186f6b6457e060405160405180910390a35050565b600080fd5b600073ffffffffffffffffffffffffffffffffffffffff82169050919050565b60006101f1826101c6565b9050919050565b610201816101e6565b811461020c57600080fd5b50565b60008151905061021e816101f8565b92915050565b6000806040838503121561023b5761023a6101c1565b5b60006102498582860161020f565b925050602061025a8582860161020f565b9150509250929050565b61026d816101e6565b82525050565b60006020820190506102886000830184610264565b92915050565b610e258061029d6000396000f3fe608060405234801561001057600080fd5b50600436106100b45760003560e01c8063851f106111610071578063851f10611461017d5780638be757e2146101995780638da5cb5b146101b757806396bf230e146101d5578063c3d2c3c1146101f1578063f2fde38b14610221576100b4565b8063150ee883146100b95780633e7a97f4146100d75780634ba0a5ee146100f5578063715018a6146101255780637de07cea1461012f578063820a2d471461015f575b600080fd5b6100c161023d565b6040516100ce91906109f9565b60405180910390f35b6100df61024a565b6040516100ec91906109f9565b60405180910390f35b61010f600480360381019061010a9190610a77565b610257565b60405161011c9190610abf565b60405180910390f35b61012d610277565b005b61014960048036038101906101449190610a77565b61028b565b6040516101569190610abf565b60405180910390f35b610167610336565b60405161017491906109f9565b60405180910390f35b61019760048036038101906101929190610a77565b610343565b005b6101a16104c8565b6040516101ae9190610b39565b60405180910390f35b6101bf6104ee565b6040516101cc9190610b63565b60405180910390f35b6101ef60048036038101906101ea9190610baa565b610517565b005b61020b60048036038101906102069190610a77565b610751565b60405161021891906109f9565b60405180910390f35b61023b60048036038101906102369190610a77565b610769565b005b6804563918244f40000081565b6802629f66e0c530000081565b60036020528060005260406000206000915054906101000a900460ff1681565b61027f6107ef565b6102896000610876565b565b60006804563918244f400000600260008473ffffffffffffffffffffffffffffffffffffffff1673ffffffffffffffffffffffffffffffffffffffff168152602001908152602001600020541015801561032f5750600360008373ffffffffffffffffffffffffffffffffffffffff1673ffffffffffffffffffffffffffffffffffffffff16815260200190815260200160002060009054906101000a900460ff16155b9050919050565b6801f399b1438a10000081565b61034b6107ef565b600360008273ffffffffffffffffffffffffffffffffffffffff1673ffffffffffffffffffffffffffffffffffffffff16815260200190815260200160002060009054906101000a900460ff166103d7576040517f08c379a00000000000000000000000000000000000000000000000000000000081526004016103ce90610c47565b60405180910390fd5b60006802629f66e0c53000009050600160009054906101000a900473ffffffffffffffffffffffffffffffffffffffff1673ffffffffffffffffffffffffffffffffffffffff1663a9059cbb33836040518363ffffffff1660e01b8152600401610442929190610c67565b6020604051808303816000875af1158015610461573d6000803e3d6000fd5b505050506040513d601f19601f820116820180604052508101906104859190610cbc565b6104c4576040517f08c379a00000000000000000000000000000000000000000000000000000000081526004016104bb90610d35565b60405180910390fd5b5050565b600160009054906101000a900473ffffffffffffffffffffffffffffffffffffffff1681565b60008060009054906101000a900473ffffffffffffffffffffffffffffffffffffffff16905090565b600160009054906101000a900473ffffffffffffffffffffffffffffffffffffffff1673ffffffffffffffffffffffffffffffffffffffff166323b872dd3330846040518463ffffffff1660e01b815260040161057693929190610d55565b6020604051808303816000875af1158015610595573d6000803e3d6000fd5b505050506040513d601f19601f820116820180604052508101906105b99190610cbc565b6105f8576040517f08c379a00000000000000000000000000000000000000000000000000000000081526004016105ef90610d35565b60405180910390fd5b80600260008473ffffffffffffffffffffffffffffffffffffffff1673ffffffffffffffffffffffffffffffffffffffff16815260200190815260200160002060008282546106479190610dbb565b925050819055508173ffffffffffffffffffffffffffffffffffffffff167f2f4ae87a584f00dc35b043dd1c5ac839c1f41cd3a66e834d4e13faa6251634e68260405161069491906109f9565b60405180910390a26804563918244f400000600260008473ffffffffffffffffffffffffffffffffffffffff1673ffffffffffffffffffffffffffffffffffffffff168152602001908152602001600020541015801561073e5750600360008373ffffffffffffffffffffffffffffffffffffffff1673ffffffffffffffffffffffffffffffffffffffff16815260200190815260200160002060009054906101000a900460ff16155b1561074d5761074c8261093a565b5b5050565b60026020528060005260406000206000915090505481565b6107716107ef565b600073ffffffffffffffffffffffffffffffffffffffff168173ffffffffffffffffffffffffffffffffffffffff16036107e35760006040517f1e4fbdf70000000000000000000000000000000000000000000000000000000081526004016107da9190610b63565b60405180910390fd5b6107ec81610876565b50565b6107f76109d8565b73ffffffffffffffffffffffffffffffffffffffff166108156104ee565b73ffffffffffffffffffffffffffffffffffffffff1614610874576108386109d8565b6040517f118cdaa700000000000000000000000000000000000000000000000000000000815260040161086b9190610b63565b60405180910390fd5b565b60008060009054906101000a900473ffffffffffffffffffffffffffffffffffffffff169050816000806101000a81548173ffffffffffffffffffffffffffffffffffffffff021916908373ffffffffffffffffffffffffffffffffffffffff1602179055508173ffffffffffffffffffffffffffffffffffffffff168173ffffffffffffffffffffffffffffffffffffffff167f8be0079c531659141344cd1fd0a4f28419497f9722a3daafe3b4186f6b6457e060405160405180910390a35050565b6001600360008373ffffffffffffffffffffffffffffffffffffffff1673ffffffffffffffffffffffffffffffffffffffff16815260200190815260200160002060006101000a81548160ff0219169083151502179055508073ffffffffffffffffffffffffffffffffffffffff167f48e1b05f0d67eddd828db581223043ad89bf831708c249feedd1dcc8b205517060405160405180910390a250565b600033905090565b6000819050919050565b6109f3816109e0565b82525050565b6000602082019050610a0e60008301846109ea565b92915050565b600080fd5b600073ffffffffffffffffffffffffffffffffffffffff82169050919050565b6000610a4482610a19565b9050919050565b610a5481610a39565b8114610a5f57600080fd5b50565b600081359050610a7181610a4b565b92915050565b600060208284031215610a8d57610a8c610a14565b5b6000610a9b84828501610a62565b91505092915050565b60008115159050919050565b610ab981610aa4565b82525050565b6000602082019050610ad46000830184610ab0565b92915050565b6000819050919050565b6000610aff610afa610af584610a19565b610ada565b610a19565b9050919050565b6000610b1182610ae4565b9050919050565b6000610b2382610b06565b9050919050565b610b3381610b18565b82525050565b6000602082019050610b4e6000830184610b2a565b92915050565b610b5d81610a39565b82525050565b6000602082019050610b786000830184610b54565b92915050565b610b87816109e0565b8114610b9257600080fd5b50565b600081359050610ba481610b7e565b92915050565b60008060408385031215610bc157610bc0610a14565b5b6000610bcf85828601610a62565b9250506020610be085828601610b95565b9150509250929050565b600082825260208201905092915050565b7f4e6f74206d696772617465640000000000000000000000000000000000000000600082015250565b6000610c31600c83610bea565b9150610c3c82610bfb565b602082019050919050565b60006020820190508181036000830152610c6081610c24565b9050919050565b6000604082019050610c7c6000830185610b54565b610c8960208301846109ea565b9392505050565b610c9981610aa4565b8114610ca457600080fd5b50565b600081519050610cb681610c90565b92915050565b600060208284031215610cd257610cd1610a14565b5b6000610ce084828501610ca7565b91505092915050565b7f5472616e73666572206661696c65640000000000000000000000000000000000600082015250565b6000610d1f600f83610bea565b9150610d2a82610ce9565b602082019050919050565b60006020820190508181036000830152610d4e81610d12565b9050919050565b6000606082019050610d6a6000830186610b54565b610d776020830185610b54565b610d8460408301846109ea565b949350505050565b7f4e487b7100000000000000000000000000000000000000000000000000000000600052601160045260246000fd5b6000610dc6826109e0565b9150610dd1836109e0565b9250828201905080821115610de957610de8610d8c565b5b9291505056fea2646970667358221220d54668e2a651ed93db56f49e2ec65aa8a494993d2a62976ff8eaf5a61a8f07a464736f6c634300081c0033",
  "linkReferences": {},
  "deployedLinkReferences": {}
}