{
  "contracts/BondingCurveLogic.sol": {
    "BondingCurveLogic": {
      "abi": [
        {
          "inputs": [],
          "name": "BASE_PRICE",
          "outputs": [
            {
              "internalType": "uint256",
              "name": "",
              "type": "uint256"
            }
          ],
          "stateMutability": "view",
          "type": "function"
        },
        {
          "inputs": [],
          "name": "PRICE_INCREMENT",
          "outputs": [
            {
              "internalType": "uint256",
              "name": "",
              "type": "uint256"
            }
          ],
          "stateMutability": "view",
          "type": "function"
        },
        {
          "inputs": [
            {
              "internalType": "uint256",
              "name": "currentSupply",
              "type": "uint256"
            },
            {
              "internalType": "uint256",
              "name": "amount",
              "type": "uint256"
            }
          ],
          "name": "getBuyCost",
          "outputs": [
            {
              "internalType": "uint256",
              "name": "",
              "type": "uint256"
            }
          ],
          "stateMutability": "pure",
          "type": "function"
        },
        {
          "inputs": [
            {
              "internalType": "uint256",
              "name": "currentSupply",
              "type": "uint256"
            }
          ],
          "name": "getCurrentPrice",
          "outputs": [
            {
              "internalType": "uint256",
              "name": "",
              "type": "uint256"
            }
          ],
          "stateMutability": "pure",
          "type": "function"
        },
        {
          "inputs": [
            {
              "internalType": "uint256",
              "name": "currentSupply",
              "type": "uint256"
            },
            {
              "internalType": "uint256",
              "name": "amount",
              "type": "uint256"
            }
          ],
          "name": "getSellProceeds",
          "outputs": [
            {
              "internalType": "uint256",
              "name": "",
              "type": "uint256"
            }
          ],
          "stateMutability": "pure",
          "type": "function"
        }
      ],
      "evm": {
        "bytecode": {
          "linkReferences": {},
          "object": "6080604052348015600f57600080fd5b506104ec8061001f6000396000f3fe608060405234801561001057600080fd5b50600436106100575760003560e01c8063121a257f1461005c578063594473411461008c5780636d25d802146100bc578063c55d0f56146100da578063f86325ed1461010a575b600080fd5b610076600480360381019061007191906102e6565b610128565b6040516100839190610335565b60405180910390f35b6100a660048036038101906100a191906102e6565b6101c5565b6040516100b39190610335565b60405180910390f35b6100c461026d565b6040516100d19190610335565b60405180910390f35b6100f460048036038101906100ef9190610350565b610276565b6040516101019190610335565b60405180910390f35b6101126102a1565b60405161011f9190610335565b60405180910390f35b600080820361013a57600090506101bf565b600064e8d4a510008461014d91906103ac565b655af3107a400061015e91906103ee565b9050600064e8d4a51000848661017491906103ee565b61017e91906103ac565b655af3107a400061018f91906103ee565b90506000600282846101a191906103ee565b6101ab9190610451565b905084816101b991906103ac565b93505050505b92915050565b6000808214806101d457508183105b156101e25760009050610267565b600064e8d4a5100083856101f69190610482565b61020091906103ac565b655af3107a400061021191906103ee565b9050600064e8d4a510008561022691906103ac565b655af3107a400061023791906103ee565b905060006002828461024991906103ee565b6102539190610451565b9050848161026191906103ac565b93505050505b92915050565b64e8d4a5100081565b600064e8d4a510008261028991906103ac565b655af3107a400061029a91906103ee565b9050919050565b655af3107a400081565b600080fd5b6000819050919050565b6102c3816102b0565b81146102ce57600080fd5b50565b6000813590506102e0816102ba565b92915050565b600080604083850312156102fd576102fc6102ab565b5b600061030b858286016102d1565b925050602061031c858286016102d1565b9150509250929050565b61032f816102b0565b82525050565b600060208201905061034a6000830184610326565b92915050565b600060208284031215610366576103656102ab565b5b6000610374848285016102d1565b91505092915050565b7f4e487b7100000000000000000000000000000000000000000000000000000000600052601160045260246000fd5b60006103b7826102b0565b91506103c2836102b0565b92508282026103d0816102b0565b915082820484148315176103e7576103e661037d565b5b5092915050565b60006103f9826102b0565b9150610404836102b0565b925082820190508082111561041c5761041b61037d565b5b92915050565b7f4e487b7100000000000000000000000000000000000000000000000000000000600052601260045260246000fd5b600061045c826102b0565b9150610467836102b0565b92508261047757610476610422565b5b828204905092915050565b600061048d826102b0565b9150610498836102b0565b92508282039050818111156104b0576104af61037d565b5b9291505056fea26469706673582212205693221d4a1f7e9d5da519b4a859a952a32f20faf6b48d23c4efffdb664bb80c64736f6c634300081c0033",
          "opcodes": "PUSH1 0x80 PUSH1 0x40 MSTORE CALLVALUE DUP1 ISZERO PUSH1 0xF JUMPI PUSH1 0x0 DUP1 REVERT JUMPDEST POP PUSH2 0x4EC DUP1 PUSH2 0x1F PUSH1 0x0 CODECOPY PUSH1 0x0 RETURN INVALID PUSH1 0x80 PUSH1 0x40 MSTORE CALLVALUE DUP1 ISZERO PUSH2 0x10 JUMPI PUSH1 0x0 DUP1 REVERT JUMPDEST POP PUSH1 0x4 CALLDATASIZE LT PUSH2 0x57 JUMPI PUSH1 0x0 CALLDATALOAD PUSH1 0xE0 SHR DUP1 PUSH4 0x121A257F EQ PUSH2 0x5C JUMPI DUP1 PUSH4 0x59447341 EQ PUSH2 0x8C JUMPI DUP1 PUSH4 0x6D25D802 EQ PUSH2 0xBC JUMPI DUP1 PUSH4 0xC55D0F56 EQ PUSH2 0xDA JUMPI DUP1 PUSH4 0xF86325ED EQ PUSH2 0x10A JUMPI JUMPDEST PUSH1 0x0 DUP1 REVERT JUMPDEST PUSH2 0x76 PUSH1 0x4 DUP1 CALLDATASIZE SUB DUP2 ADD SWAP1 PUSH2 0x71 SWAP2 SWAP1 PUSH2 0x2E6 JUMP JUMPDEST PUSH2 0x128 JUMP JUMPDEST PUSH1 0x40 MLOAD PUSH2 0x83 SWAP2 SWAP1 PUSH2 0x335 JUMP JUMPDEST PUSH1 0x40 MLOAD DUP1 SWAP2 SUB SWAP1 RETURN JUMPDEST PUSH2 0xA6 PUSH1 0x4 DUP1 CALLDATASIZE SUB DUP2 ADD SWAP1 PUSH2 0xA1 SWAP2 SWAP1 PUSH2 0x2E6 JUMP JUMPDEST PUSH2 0x1C5 JUMP JUMPDEST PUSH1 0x40 MLOAD PUSH2 0xB3 SWAP2 SWAP1 PUSH2 0x335 JUMP JUMPDEST PUSH1 0x40 MLOAD DUP1 SWAP2 SUB SWAP1 RETURN JUMPDEST PUSH2 0xC4 PUSH2 0x26D JUMP JUMPDEST PUSH1 0x40 MLOAD PUSH2 0xD1 SWAP2 SWAP1 PUSH2 0x335 JUMP JUMPDEST PUSH1 0x40 MLOAD DUP1 SWAP2 SUB SWAP1 RETURN JUMPDEST PUSH2 0xF4 PUSH1 0x4 DUP1 CALLDATASIZE SUB DUP2 ADD SWAP1 PUSH2 0xEF SWAP2 SWAP1 PUSH2 0x350 JUMP JUMPDEST PUSH2 0x276 JUMP JUMPDEST PUSH1 0x40 MLOAD PUSH2 0x101 SWAP2 SWAP1 PUSH2 0x335 JUMP JUMPDEST PUSH1 0x40 MLOAD DUP1 SWAP2 SUB SWAP1 RETURN JUMPDEST PUSH2 0x112 PUSH2 0x2A1 JUMP JUMPDEST PUSH1 0x40 MLOAD PUSH2 0x11F SWAP2 SWAP1 PUSH2 0x335 JUMP JUMPDEST PUSH1 0x40 MLOAD DUP1 SWAP2 SUB SWAP1 RETURN JUMPDEST PUSH1 0x0 DUP1 DUP3 SUB PUSH2 0x13A JUMPI PUSH1 0x0 SWAP1 POP PUSH2 0x1BF JUMP JUMPDEST PUSH1 0x0 PUSH5 0xE8D4A51000 DUP5 PUSH2 0x14D SWAP2 SWAP1 PUSH2 0x3AC JUMP JUMPDEST PUSH6 0x5AF3107A4000 PUSH2 0x15E SWAP2 SWAP1 PUSH2 0x3EE JUMP JUMPDEST SWAP1 POP PUSH1 0x0 PUSH5 0xE8D4A51000 DUP5 DUP7 PUSH2 0x174 SWAP2 SWAP1 PUSH2 0x3EE JUMP JUMPDEST PUSH2 0x17E SWAP2 SWAP1 PUSH2 0x3AC JUMP JUMPDEST PUSH6 0x5AF3107A4000 PUSH2 0x18F SWAP2 SWAP1 PUSH2 0x3EE JUMP JUMPDEST SWAP1 POP PUSH1 0x0 PUSH1 0x2 DUP3 DUP5 PUSH2 0x1A1 SWAP2 SWAP1 PUSH2 0x3EE JUMP JUMPDEST PUSH2 0x1AB SWAP2 SWAP1 PUSH2 0x451 JUMP JUMPDEST SWAP1 POP DUP5 DUP2 PUSH2 0x1B9 SWAP2 SWAP1 PUSH2 0x3AC JUMP JUMPDEST SWAP4 POP POP POP POP JUMPDEST SWAP3 SWAP2 POP POP JUMP JUMPDEST PUSH1 0x0 DUP1 DUP3 EQ DUP1 PUSH2 0x1D4 JUMPI POP DUP2 DUP4 LT JUMPDEST ISZERO PUSH2 0x1E2 JUMPI PUSH1 0x0 SWAP1 POP PUSH2 0x267 JUMP JUMPDEST PUSH1 0x0 PUSH5 0xE8D4A51000 DUP4 DUP6 PUSH2 0x1F6 SWAP2 SWAP1 PUSH2 0x482 JUMP JUMPDEST PUSH2 0x200 SWAP2 SWAP1 PUSH2 0x3AC JUMP JUMPDEST PUSH6 0x5AF3107A4000 PUSH2 0x211 SWAP2 SWAP1 PUSH2 0x3EE JUMP JUMPDEST SWAP1 POP PUSH1 0x0 PUSH5 0xE8D4A51000 DUP6 PUSH2 0x226 SWAP2 SWAP1 PUSH2 0x3AC JUMP JUMPDEST PUSH6 0x5AF3107A4000 PUSH2 0x237 SWAP2 SWAP1 PUSH2 0x3EE JUMP JUMPDEST SWAP1 POP PUSH1 0x0 PUSH1 0x2 DUP3 DUP5 PUSH2 0x249 SWAP2 SWAP1 PUSH2 0x3EE JUMP JUMPDEST PUSH2 0x253 SWAP2 SWAP1 PUSH2 0x451 JUMP JUMPDEST SWAP1 POP DUP5 DUP2 PUSH2 0x261 SWAP2 SWAP1 PUSH2 0x3AC JUMP JUMPDEST SWAP4 POP POP POP POP JUMPDEST SWAP3 SWAP2 POP POP JUMP JUMPDEST PUSH5 0xE8D4A51000 DUP2 JUMP JUMPDEST PUSH1 0x0 PUSH5 0xE8D4A51000 DUP3 PUSH2 0x289 SWAP2 SWAP1 PUSH2 0x3AC JUMP JUMPDEST PUSH6 0x5AF3107A4000 PUSH2 0x29A SWAP2 SWAP1 PUSH2 0x3EE JUMP JUMPDEST SWAP1 POP SWAP2 SWAP1 POP JUMP JUMPDEST PUSH6 0x5AF3107A4000 DUP2 JUMP JUMPDEST PUSH1 0x0 DUP1 REVERT JUMPDEST PUSH1 0x0 DUP2 SWAP1 POP SWAP2 SWAP1 POP JUMP JUMPDEST PUSH2 0x2C3 DUP2 PUSH2 0x2B0 JUMP JUMPDEST DUP2 EQ PUSH2 0x2CE JUMPI PUSH1 0x0 DUP1 REVERT JUMPDEST POP JUMP JUMPDEST PUSH1 0x0 DUP2 CALLDATALOAD SWAP1 POP PUSH2 0x2E0 DUP2 PUSH2 0x2BA JUMP JUMPDEST SWAP3 SWAP2 POP POP JUMP JUMPDEST PUSH1 0x0 DUP1 PUSH1 0x40 DUP4 DUP6 SUB SLT ISZERO PUSH2 0x2FD JUMPI PUSH2 0x2FC PUSH2 0x2AB JUMP JUMPDEST JUMPDEST PUSH1 0x0 PUSH2 0x30B DUP6 DUP3 DUP7 ADD PUSH2 0x2D1 JUMP JUMPDEST SWAP3 POP POP PUSH1 0x20 PUSH2 0x31C DUP6 DUP3 DUP7 ADD PUSH2 0x2D1 JUMP JUMPDEST SWAP2 POP POP SWAP3 POP SWAP3 SWAP1 POP JUMP JUMPDEST PUSH2 0x32F DUP2 PUSH2 0x2B0 JUMP JUMPDEST DUP3 MSTORE POP POP JUMP JUMPDEST PUSH1 0x0 PUSH1 0x20 DUP3 ADD SWAP1 POP PUSH2 0x34A PUSH1 0x0 DUP4 ADD DUP5 PUSH2 0x326 JUMP JUMPDEST SWAP3 SWAP2 POP POP JUMP JUMPDEST PUSH1 0x0 PUSH1 0x20 DUP3 DUP5 SUB SLT ISZERO PUSH2 0x366 JUMPI PUSH2 0x365 PUSH2 0x2AB JUMP JUMPDEST JUMPDEST PUSH1 0x0 PUSH2 0x374 DUP5 DUP3 DUP6 ADD PUSH2 0x2D1 JUMP JUMPDEST SWAP2 POP POP SWAP3 SWAP2 POP POP JUMP JUMPDEST PUSH32 0x4E487B7100000000000000000000000000000000000000000000000000000000 PUSH1 0x0 MSTORE PUSH1 0x11 PUSH1 0x4 MSTORE PUSH1 0x24 PUSH1 0x0 REVERT JUMPDEST PUSH1 0x0 PUSH2 0x3B7 DUP3 PUSH2 0x2B0 JUMP JUMPDEST SWAP2 POP PUSH2 0x3C2 DUP4 PUSH2 0x2B0 JUMP JUMPDEST SWAP3 POP DUP3 DUP3 MUL PUSH2 0x3D0 DUP2 PUSH2 0x2B0 JUMP JUMPDEST SWAP2 POP DUP3 DUP3 DIV DUP5 EQ DUP4 ISZERO OR PUSH2 0x3E7 JUMPI PUSH2 0x3E6 PUSH2 0x37D JUMP JUMPDEST JUMPDEST POP SWAP3 SWAP2 POP POP JUMP JUMPDEST PUSH1 0x0 PUSH2 0x3F9 DUP3 PUSH2 0x2B0 JUMP JUMPDEST SWAP2 POP PUSH2 0x404 DUP4 PUSH2 0x2B0 JUMP JUMPDEST SWAP3 POP DUP3 DUP3 ADD SWAP1 POP DUP1 DUP3 GT ISZERO PUSH2 0x41C JUMPI PUSH2 0x41B PUSH2 0x37D JUMP JUMPDEST JUMPDEST SWAP3 SWAP2 POP POP JUMP JUMPDEST PUSH32 0x4E487B7100000000000000000000000000000000000000000000000000000000 PUSH1 0x0 MSTORE PUSH1 0x12 PUSH1 0x4 MSTORE PUSH1 0x24 PUSH1 0x0 REVERT JUMPDEST PUSH1 0x0 PUSH2 0x45C DUP3 PUSH2 0x2B0 JUMP JUMPDEST SWAP2 POP PUSH2 0x467 DUP4 PUSH2 0x2B0 JUMP JUMPDEST SWAP3 POP DUP3 PUSH2 0x477 JUMPI PUSH2 0x476 PUSH2 0x422 JUMP JUMPDEST JUMPDEST DUP3 DUP3 DIV SWAP1 POP SWAP3 SWAP2 POP POP JUMP JUMPDEST PUSH1 0x0 PUSH2 0x48D DUP3 PUSH2 0x2B0 JUMP JUMPDEST SWAP2 POP PUSH2 0x498 DUP4 PUSH2 0x2B0 JUMP JUMPDEST SWAP3 POP DUP3 DUP3 SUB SWAP1 POP DUP2 DUP2 GT ISZERO PUSH2 0x4B0 JUMPI PUSH2 0x4AF PUSH2 0x37D JUMP JUMPDEST JUMPDEST SWAP3 SWAP2 POP POP JUMP INVALID LOG2 PUSH5 0x6970667358 0x22 SLT KECCAK256 JUMP SWAP4 0x22 SAR BLOBBASEFEE 0x1F PUSH31 0x9D5DA519B4A859A952A32F20FAF6B48D23C4EFFFDB664BB80C64736F6C6343 STOP ADDMOD SHR STOP CALLER "
        },
        "methodIdentifiers": {
          "BASE_PRICE()": "f86325ed",
          "PRICE_INCREMENT()": "6d25d802",
          "getBuyCost(uint256,uint256)": "121a257f",
          "getCurrentPrice(uint256)": "c55d0f56",
          "getSellProceeds(uint256,uint256)": "59447341"
        }
      }
    }
  }
}